:100134001203BF7FE87E031203531201857F02126C
:1001440003977F011203971202CD78107C007D0083
:100154007E007F061200D312037BC007120389AD11
:1001640007C00578187C007D007B007A0079107E3A
:10017400007F061200D3D005D0071201C8B2B580A3
:01018400C6B4
:0C03BF001203091203A51203680203DFF9
:10030900759107E4F592F595F59675B11475B218DE
:09031900F5B3F5B4F5C9F5CA22EB
:10033B0043910775BA80EF4480F5BC90FEA8743FDB
:08034B00F053BA7F75DE2F228A
:0D03A500E4FF12033B0F12033B0F02033B6A
:1002AB00EF4480F5BC7F057E0012035343BC400036
:1002BB0000E5BC30E5FB53BCDFAFBDEFFEADBEEDE3
:0102CB00FF33
:0102CC00220F
:1002CD007F021202AB8E168F177F011202AB8E18B2
:1002DD008F19E4FF1202AB8E1A8F1B7B007A007907
:0102ED0016FA
:0102EE0022ED
:10035300EF1FAC0670011E4C600A7D0F7C5ADCFE59
:04036300DDFC80EC51
:010367002273
:10036800759850438E01438E0475D7E875D6FF43C0
:030378008E1022C2
:0803D7008F993099FDD29922A3
:0503E60034431010017A
:0703DF00C296D2CCD2952298
:10032200E4FEEF339293EF25E0FFD295A294E433FB
:080332004207C2950EBE08EA65
:01033A0022A0
:0902EF007D017F211202F87F223B
:1002F800C2CC120322AC07AF05120322D2CCAF0442
:0103080022D2
:0C03B200C2CC120322E4FF120322D2CCC2
:0103BE00221C
:06027A008B2D8A2E892F56
:10028000C2CC120322AD07E4FCECC395305017E456
:10029000FF120322AB2DAA2EA92F8C82758300EFAB
:0A02A0001201120C80E3D2CCAF056E
:0102AA002231
:0B0209007BFF7A0379E67523057F3048
:060214008B208A218922E3
:10021A00C2CC120322AD07E4FCECC395235018AB01
:10022A00200522E522AA217002052114F91200F9FB
:0B023A00FF1203220C80E2D2CCAF05C3
:010245002296
:10024600C2961202097BFF7A0379E67523057F2A97
:100256001202141202EF7D287F251202F87D087F14
:10026600311202F81D7F261202F87D0F7F2012023E
:04027600F8D2962202
:10018500C2967DFF7FE11202F81202097BFF7A0316
:1001950079E67523057F2A1202147D087F31120244
:1001A500F81202EF7D1A7F241202F87D287F2512AE
:1001B50002F87D077F261202F87D0E7F201202F8D5
:0301C500D29622AD
:1001C8008F248D25851926E518F527851B28E51A1E
:1001D800F529851D2AE51CF52BC2967B007A007946
:1001E800247523087FA0120214D29620B2FD7F073F
:1001F8001203B28F1E7DFF7FE11202F87F270202F1
:01020800F8FD
:0E037B007F147E00120353A2B6B3E433FF22B8
:0E0389007F147E00120353A2B3B3E433FF22AD
:0E039700EF24FE6006047005C2B522C2B42237
:030000000203CB2D
:0C03CB00787FE4F6D8FD75813002013423
:10000300E709F608DFFA8046E709F208DFFA803EDF
:1000130088828C83E709F0A3DFFA8032E309F608CC
:10002300DFFA8078E309F208DFFA807088828C8334
:10003300E309F0A3DFFA806489828A83E0A3F608E8
:10004300DFFA805889828A83E0A3F208DFFA804CC2
:1000530080D280FA80C680D4806980F28033801099
:1000630080A680EA809A80A880DA80E280CA803302
:1000730089828A83ECFAE493A3C8C582C8CCC5837A
:10008300CCF0A3C8C582C8CCC583CCDFE9DEE7804A
:100093000D89828A83E493A3F608DFF9ECFAA9F0C9
:1000A300EDFB2289828A83ECFAE0A3C8C582C8CC1F
:1000B300C583CCF0A3C8C582C8CCC583CCDFEADE38
:1000C300E880DB89828A83E493A3F208DFF980CC9A
:1000D30088F0EF60010E4E60C388F0ED2402B40493
:1000E3000050B9F582EB2402B4040050AF2323453A
:0600F3008223900053730C
:1000F900BB010689828A83E0225002E722BBFE0205
:09010900E32289828A83E4932237
:10011200F8BB010DE58229F582E5833AF583E8F023
:10012200225006E92582C8F622BBFE05E92582C8CF
:02013200F222B7
:00000001FF
