:100134001203BD7FE87E031203511201837F021272
:1001440003957F011203951202CB78107C007D0089
:100154007E007F061200D3120379C007120387AD15
:1001640007C00578187C007D007B007A0079107E3A
:0F017400007F061200D3D005D0071201C680C845
:0C03BD001203071203A31203660203DD03
:10030700759107E4F592F595F59675B11475B218E0
:09031700F5B3F5B4F5C9F5CA22ED
:1003390043910775BA80EF4480F5BC90FEA8743FDD
:08034900F053BA7F75DE2F228C
:0D03A300E4FF1203390F1203390F02033972
:1002A900EF4480F5BC7F057E0012035143BC40003A
:1002B90000E5BC30E5FB53BCDFAFBDEFFEADBEEDE5
:0102C900FF35
:0102CA002211
:1002CB007F021202A98E168F177F011202A98E18B8
:1002DB008F19E4FF1202A98E1A8F1B7B007A00790B
:0102EB0016FC
:0102EC0022EF
:10035100EF1FAC0670011E4C600A7D0F7C5ADCFE5B
:04036100DDFC80EC53
:010365002275
:10036600759850438E01438E0475D7E875D6FF43C2
:030376008E1022C4
:0803D5008F993099FDD29922A5
:0503E40034431010017C
:0703DD00C296D2CCD295229A
:10032000E4FEEF339293EF25E0FFD295A294E433FD
:080330004207C2950EBE08EA67
:0103380022A2
:0902ED007D017F211202F67F223F
:1002F600C2CC120320AC07AF05120320D2CCAF0448
:0103060022D4
:0C03B000C2CC120320E4FF120320D2CCC8
:0103BC00221E
:060278008B2D8A2E892F58
:10027E00C2CC120320AD07E4FCECC395305017E45A
:10028E00FF120320AB2DAA2EA92F8C82758300EFAF
:0A029E001201120C80E3D2CCAF0570
:0102A8002233
:0B0207007BFF7A0379E47523057F304C
:060212008B208A218922E5
:10021800C2CC120320AD07E4FCECC395235018AB05
:10022800200522E522AA217002052114F91200F9FD
:0B023800FF1203200C80E2D2CCAF05C7
:010243002298
:10024400C2961202077BFF7A0379E47523057F2A9D
:100254001202121202ED7D287F251202F67D087F1C
:10026400311202F61D7F261202F67D0F7F20120244
:04027400F6D2962206
:10018300C2967DFF7FE11202F61202077BFF7A031C
:1001930079E47523057F2A1202127D087F3112024A
:1001A300F61202ED7D1A7F241202F67D287F2512B6
:1001B30002F67D077F261202F67D0E7F201202F6DD
:0301C300D29622AF
:1001C6008F248D25851926E518F527851B28E51A20
:1001D600F529851D2AE51CF52BC2967B007A007948
:1001E600247523087FA0120212D29620B2FD7F0743
:1001F6001203B08F1E7DFF7FE11202F67F270202F7
:01020600F601
:0E0379007F147E00120351A2B6B3E433FF22BC
:0E0387007F147E00120351A2B3B3E433FF22B1
:0E039500EF24FE6006047005C2B522C2B42239
:030000000203C92F
:0C03C900787FE4F6D8FD75813002013425
:10000300E709F608DFFA8046E709F208DFFA803EDF
:1000130088828C83E709F0A3DFFA8032E309F608CC
:10002300DFFA8078E309F208DFFA807088828C8334
:10003300E309F0A3DFFA806489828A83E0A3F608E8
:10004300DFFA805889828A83E0A3F208DFFA804CC2
:1000530080D280FA80C680D4806980F28033801099
:1000630080A680EA809A80A880DA80E280CA803302
:1000730089828A83ECFAE493A3C8C582C8CCC5837A
:10008300CCF0A3C8C582C8CCC583CCDFE9DEE7804A
:100093000D89828A83E493A3F608DFF9ECFAA9F0C9
:1000A300EDFB2289828A83ECFAE0A3C8C582C8CC1F
:1000B300C583CCF0A3C8C582C8CCC583CCDFEADE38
:1000C300E880DB89828A83E493A3F208DFF980CC9A
:1000D30088F0EF60010E4E60C388F0ED2402B40493
:1000E3000050B9F582EB2402B4040050AF2323453A
:0600F3008223900053730C
:1000F900BB010689828A83E0225002E722BBFE0205
:09010900E32289828A83E4932237
:10011200F8BB010DE58229F582E5833AF583E8F023
:10012200225006E92582C8F622BBFE05E92582C8CF
:02013200F222B7
:00000001FF
