:100134001203BA7FE87E0312034E1201807F02127B
:100144000392C2B51202C878107C007D007E007F45
:10015400061200D3120376C007120384AD07C0054C
:1001640078187C007D007B007A0079107E007F0681
:0C0174001200D3D005D0071201C380C8D0
:0C03BA001203041203A01203630203DA12
:10030400759107E4F592F595F59675B11475B218E3
:09031400F5B3F5B4F5C9F5CA22F0
:1003360043910775BA80EF4480F5BC90FEA8743FE0
:08034600F053BA7F75DE2F228F
:0D03A000E4FF1203360F1203360F0203367E
:1002A600EF4480F5BC7F057E0012034E43BC400040
:1002B60000E5BC30E5FB53BCDFAFBDEFFEADBEEDE8
:0102C600FF38
:0102C7002214
:1002C8007F021202A68E168F177F011202A68E18C1
:1002D8008F19E4FF1202A68E1A8F1B7B007A007911
:0102E80016FF
:0102E90022F2
:10034E00EF1FAC0670011E4C600A7D0F7C5ADCFE5E
:04035E00DDFC80EC56
:010362002278
:10036300759850438E01438E0475D7E875D6FF43C5
:030373008E1022C7
:0803D2008F993099FDD29922A8
:0503E10034431010017F
:0703DA00C296D2CCD295229D
:10031D00E4FEEF339293EF25E0FFD295A294E43300
:08032D004207C2950EBE08EA6A
:0103350022A5
:0902EA007D017F211202F37F2245
:1002F300C2CC12031DAC07AF0512031DD2CCAF0451
:0103030022D7
:0C03AD00C2CC12031DE4FF12031DD2CCD1
:0103B9002221
:060275008B2D8A2E892F5B
:10027B00C2CC12031DAD07E4FCECC395305017E460
:10028B00FF12031DAB2DAA2EA92F8C82758300EFB5
:0A029B001201120C80E3D2CCAF0573
:0102A5002236
:0B0204007BFF7A0379E17523057F3052
:06020F008B208A218922E8
:10021500C2CC12031DAD07E4FCECC395235018AB0B
:10022500200522E522AA217002052114F91200F900
:0B023500FF12031D0C80E2D2CCAF05CD
:01024000229B
:10024100C2961202047BFF7A0379E17523057F2AA6
:1002510012020F1202EA7D287F251202F37D087F28
:10026100311202F31D7F261202F37D0F7F2012024D
:04027100F3D296220C
:10018000C2967DFF7FE11202F31202047BFF7A0325
:1001900079E17523057F2A12020F7D087F31120253
:1001A000F31202EA7D1A7F241202F37D287F2512C2
:1001B00002F37D077F261202F37D0E7F201202F3E9
:0301C000D29622B2
:1001C3008F248D25851926E518F527851B28E51A23
:1001D300F529851D2AE51CF52BC2967B007A00794B
:1001E300247523087FA012020FD29620B2FD7F0749
:1001F3001203AD8F1E7DFF7FE11202F37F27020200
:01020300F307
:0E0376007F147E0012034EA2B6B3E433FF22C2
:0E0384007F147E0012034EA2B3B3E433FF22B7
:0E039200EF24FE6006047005C2B522C2B4223C
:030000000203C632
:0C03C600787FE4F6D8FD75813002013428
:10000300E709F608DFFA8046E709F208DFFA803EDF
:1000130088828C83E709F0A3DFFA8032E309F608CC
:10002300DFFA8078E309F208DFFA807088828C8334
:10003300E309F0A3DFFA806489828A83E0A3F608E8
:10004300DFFA805889828A83E0A3F208DFFA804CC2
:1000530080D280FA80C680D4806980F28033801099
:1000630080A680EA809A80A880DA80E280CA803302
:1000730089828A83ECFAE493A3C8C582C8CCC5837A
:10008300CCF0A3C8C582C8CCC583CCDFE9DEE7804A
:100093000D89828A83E493A3F608DFF9ECFAA9F0C9
:1000A300EDFB2289828A83ECFAE0A3C8C582C8CC1F
:1000B300C583CCF0A3C8C582C8CCC583CCDFEADE38
:1000C300E880DB89828A83E493A3F208DFF980CC9A
:1000D30088F0EF60010E4E60C388F0ED2402B40493
:1000E3000050B9F582EB2402B4040050AF2323453A
:0600F3008223900053730C
:1000F900BB010689828A83E0225002E722BBFE0205
:09010900E32289828A83E4932237
:10011200F8BB010DE58229F582E5833AF583E8F023
:10012200225006E92582C8F622BBFE05E92582C8CF
:02013200F222B7
:00000001FF
