:100A1600120ACE7FE87E03120A6B1208EAC291C25E
:100A2600CD12061778177C007D007E007F08120421
:030A36008B80EEC4
:03005B0002097621
:10097600C0E0C0F0C083C082C0D075D000C000C047
:1009860001C002C003C004C005C006C007B2911270
:1009960006DDD007D006D005D004D003D002D001A2
:0D09A600D000D0D0D082D083D0F0D0E0328D
:1006DD00D3E51A946EE5199400400DE4FD7F641284
:1006ED000003AF1AAD1C8039C3E51A945AE519946D
:1006FD0000500DAF1AAD1C120003E4FD7F64802184
:10070D00C3E51A945AE5199400401BD3E51A946E6B
:10071D00E519940050107D227FC81200037D227FC1
:10072D00C81207FDC292D3E51E946EE51D940040DC
:10073D000DE4FD7F6412084CAF1EAD1C8039C3E57E
:10074D001E945AE51D9400500DAF1EAD1C12084CA1
:10075D00E4FD7F648021C3E51E945AE51D9400409D
:10076D001BD3E51E946EE51D940050107D227FC8AD
:0D077D0012084C7D227FC812089BC29222F8
:0F0ACE00120A39120AAA120B02120B0902078A26
:100A3900E4F591759203F595F59675B180F5B2F5E2
:090A4900B3F5B4F5C975CA102219
:050B0F00344310100149
:100A5200E4FEEF3392B4EF25E0FFD2B2A2B3E43367
:080A62004207C2B20EBE08EA11
:010A6A002269
:100ABD00C2B6120A52AC07AF05120A52D2B6AF0433
:010ACD002206
:0C0ADD00C2B6120A52E4FF120A52D2B64E
:010AE90022EA
:0609E5008B138A14891532
:1009EB00C2B6120A52AD07E4FCECC395165017E4DD
:1009FB00FF120A52AB13AA14A9158C82758300EF50
:0A0A0B001204CA0C80E3D2B6AF0556
:010A150022BE
:0609B3008B0A8A0B890C7F
:1009B900C2B6120A52AD07E4FCECC3950D5018AB50
:1009C9000A050CE50CAA0B7002050B14F91204B107
:0B09D900FF120A520C80E2D2B6AF05FC
:0109E40022F0
:1008EA00C2B57BFF7A0B790F750D057F301209B3FC
:1008FA007BFF7A0B790F750D057F2A1209B37D01EB
:10090A007F21120ABD7F22120ABD7D287F25120A85
:10091A00BD7D087F31120ABD1D7F26120ABD7D0FDB
:08092A007F20120ABDD2B522A4
:070B0200C2B5D2B6D2B22247
:100617007F07120ADD8F09E50930E60E7B007A00B5
:10062700791F7516087F611209E5851F0A85200B5A
:10063700750C0085220DE50D750D00F50CE52142C1
:100647000DE4AE0CAF0DFCFD7BC8FAF9F81204EC13
:10065700E47BFF7A03F9F81209328E0C8F0D750EC1
:100667000085240FE50F750F00F50EE523420FE413
:10067700AE0EAF0FFCFD7B22FAF9F81204ECE47B17
:10068700FF7A03F9F81209328E0E8F0F7510008565
:100697002611E511751100F510E5254211E4AE109C
:1006A700AF11FCFD7BC8FAF9F81204ECE47BFF7A82
:1006B70003F9F81209328E108F117DFF7FE2120ABB
:1006C700BDAD097F27120ABD7F147E00120A6B7B1E
:0506D700007A00790A21
:0106DC0022FB
:100AAA00759850438E01438E0475D7E875D6FF4377
:030ABA008E102279
:080052008F993099FDD299222B
:100A6B00EF1FAC0670011E4C600A7D0F7C5ADCFE3A
:040A7B00DDFC80EC32
:010A7F002254
:100A8000EF24FE600A14600A24027008C29122C298
:050A9000CD22C29222FC
:100A9500EF24FE600A14600A24027008D29122D263
:050AA500CD22D29222D7
:060B0900D2AF758F20221F
:10078A0075BA8090FEB67405F090FECCE4F090FE47
:10079A00C87460F090FECC7401F0A3E4F090FECB34
:1007AA007460F090FECD7410F090FEECE4F090FED0
:1007BA00E87460F090FEEC7411F090FEE97460F059
:1007CA0090FEB17441F090FEB57405F090FEDD74B0
:1007DA0080F090FEFDF090FEC07401F090FEE0F013
:1007EA0090FED2E4F0A37464F090FEF2E4F0A374F5
:0307FA0064F02286
:100003008D08EF249CFFE434FFFE120AF6AC06AD24
:1000130007EC120301C004C005C006C007AC08E426
:10002300120306E4FBFA79C8784212025F7BC37AB3
:10003300F57928783F120065D003D002D001D000B3
:0F00430012015612033A90FED5EEF0A3EFF02211
:1007FD008D08EF249CFFE434FFFE120AF6AC06AD23
:10080D0007EC120301C004C005C006C007AC08E424
:10081D00120306E4FBFA79C8784212025F7BC37AB1
:10082D00F57928783F120065D003D002D001D000B1
:0F083D0012015612033A90FEDBEEF0A3EFF02209
:10084C008D08EF249CFFE434FFFE120AF6AC06ADD3
:10085C0007EC120301C004C005C006C007AC08E4D5
:10086C00120306E4FBFA79C8784212025F7BC37A62
:10087C00F57928783F120065D003D002D001D00062
:0F088C0012015612033A90FEF5EEF0A3EFF022A0
:10089B008D08EF249CFFE434FFFE120AF6AC06AD84
:1008AB0007EC120301C004C005C006C007AC08E486
:1008BB00120306E4FBFA79C8784212025F7BC37A13
:1008CB00F57928783F120065D003D002D001D00013
:0F08DB0012015612033A90FEF7EEF0A3EFF0224F
:10005E000203A6E86480F8E933E83360110460F027
:10006E00ED33EC337009E8FCE9FDEAFEEBFF220408
:10007E0060DED3EB9FEA9EE99DE8C2E78CF0C2F703
:10008E0095F0400CE8CCF8E9CDF9EACEFAEBCFFBCF
:10009E0012037185D0F05804700320D5B3E80470B4
:1000AE00075002B2D50203B092D5EC0460F7E4CC4F
:1000BE00C0E0C398F8603B94186008400DD0E0FB98
:1000CE00020388E4FBFAC9FC8028E830E406E4C9A0
:1000DE00FBE4CAFCE830E305E4C9CACBFCE85407EC
:1000EE006010F8C3E913F9EA13FAEB13FBEC13FCF7
:1000FE00D8F130F52FC3E49CFCEF9BFFEE9AFEED9A
:10010E0099FDD0E0FBEF4E4D4C701222DB03020343
:10011E00ADEC2CFCEF33FFEE33FEED33FDED30E7AF
:10012E00EB020388EF2BFFEE3AFEED39FDD0E0FB3C
:10013E0050130BBB00030203B0ED13FDEE13FEEFE5
:08014E0013FFEC13FC0203880F
:10015600EC4D6011E8497017ED33EC3304600DE4A3
:10016600FCFFFEFD22E933E8330470F80203A61211
:10017600037158046009E4CC248150062850090212
:1001860003B02840030203ADC0E0EB4A7044B980D7
:1001960006D0E0FB02039CEF4E701CBD8008EBFF0F
:1001A600EAFEE9FD80EBE98DF0A4FEE5F002023FF0
:1001B600E9CDF9EAFEEBFFEF89F0A4FCE5F0CE8984
:1001C600F0A42EFFE435F0CD89F0A42DFEE435F041
:1001D6008067EF4E7005BD80D780C3EF8BF0A4AC6F
:1001E600F0EE8BF0A42CFCE435F0F8EF8AF0A42CAA
:1001F600E5F038FCE433CB8DF0A42CFCE5F03BF8BD
:10020600EE8AF0A42CFCE5F038F8E433CF89F0A4AC
:100216002CFCE5F038CF3400CE89F0A42FFFE5F0B2
:100226003EFEE433C98DF0A42EFEE5F039CD8AF00A
:10023600A42FFFE5F03EFEE43DFD33D0E0FB500782
:100246000BBB000F0203B0EC2CFCEF33FFEE33FECA
:06025600ED33FD020388F8
:10025C000203B0EC5D046005E8590470030203A6C8
:10026C00120371580460F6EC4860F2EC7004FDFE69
:10027C00FF22C860DB2481C85009C3986002500675
:10028C000203AD9850CAF582E9294B4A7005AB823E
:10029C0002039C75F0007C1A7880C3EF9BEE9AEDFC
:1002AC0099400DC3EF9BFFEE9AFEED99FDE842F0ED
:1002BC00DC23ACF0D0E0FFD0E0FED0E0FDAB822040
:1002CC00E7101BEB60BAEC2CFCEF33FFEE33FEEDCA
:1002DC0033FD020388E803F830E705C0F075F00041
:1002EC00EF2FFFEE33FEED33FD40B830E7C280AAAE
:1002FC0075F020800E75F010800575F0087D007E7D
:10030C00007F003392D530D50312053BEC334010FF
:10031C00EF33FFEE33FEED33FDEC33FCD5F0ED2285
:0E032C00E5F0247EA2D513CC92E7CDCEFF22C1
:10033A00EDD2E7CD33EC3392D524814006E4FFFEBB
:10034A00FDFC22FCE4CFCECDCC24E0501174FF801A
:10035A00EDC3CC13CCCD13CDCE13CECF13CF0470B7
:07036A00F030D5DE02053B77
:10037100E9D2E7C933E833F892D5EDD2E7CD33ECD2
:0703810033FC5002B2D5224B
:10038800EC30E7100FBF000C0EBE00080DBD0004D6
:100398000BEB6014A2D5EB13FCED92E7FD2274FF82
:1003A800FCFDFEFF22E480F8A2D574FF13FC7D80DB
:0303B800E480EFEF
:03000000020AEA07
:0C0AEA00787FE4F6D8FD758126020A161C
:1003BB00E709F608DFFA8046E709F208DFFA803E24
:1003CB0088828C83E709F0A3DFFA8032E309F60811
:1003DB00DFFA8078E309F208DFFA807088828C8379
:1003EB00E309F0A3DFFA806489828A83E0A3F6082D
:1003FB00DFFA805889828A83E0A3F208DFFA804C07
:10040B0080D280FA80C680D4806980F280338010DD
:10041B0080A680EA809A80A880DA80E280CA803346
:10042B0089828A83ECFAE493A3C8C582C8CCC583BE
:10043B00CCF0A3C8C582C8CCC583CCDFE9DEE7808E
:10044B000D89828A83E493A3F608DFF9ECFAA9F00D
:10045B00EDFB2289828A83ECFAE0A3C8C582C8CC63
:10046B00C583CCF0A3C8C582C8CCC583CCDFEADE7C
:10047B00E880DB89828A83E493A3F208DFF980CCDE
:10048B0088F0EF60010E4E60C388F0ED2402B404D7
:10049B000050B9F582EB2402B4040050AF2323457E
:0604AB00822390040B7394
:1004B100BB010689828A83E0225002E722BBFE0249
:0904C100E32289828A83E493227C
:1004CA00F8BB010DE58229F582E5833AF583E8F068
:1004DA00225006E92582C8F622BBFE05E92582C814
:0204EA00F222FC
:1004EC00E88FF0A4CC8BF0A42CFCE98EF0A42CFCAF
:1004FC008AF0EDA42CFCEA8EF0A4CDA8F08BF0A42D
:10050C002DCC3825F0FDE98FF0A42CCD35F0FCEB8B
:10051C008EF0A4FEA9F0EB8FF0A4CFC5F02ECD3950
:0F052C00FEE43CFCEAA42DCE35F0FDE43CFC22BD
:10093200C2D5E830E70FB2D5E4C39BFBE49AFAE4F0
:1009420099F9E498F8EC30E717B2D5120968120564
:1009520085E4C39BFBE49AFAE499F9E498F88003EE
:1009620012058530D50DE4C39FFFE49EFEE49DFD94
:04097200E49CFC22E3
:0E053B00C3E49FFFE49EFEE49DFDE49CFC22D1
:0C0AF600EE30E707C3E49FFFE49EFE2201
:1005490075F008758200EF2FFFEE33FECD33CDCC69
:1005590033CCC58233C5829BED9AEC99E5829840EC
:100569000CF582EE9BFEED9AFDEC99FC0FD5F0D6C9
:10057900E4CEFBE4CDFAE4CCF9A88222B800C1B9F3
:100589000059BA002DEC8BF084CFCECDFCE5F0CB31
:10059900F97818EF2FFFEE33FEED33FDEC33FCEB6A
:1005A90033FB10D703994004EB99FB0FD8E5E4F925
:1005B900FA227818EF2FFFEE33FEED33FDEC33FC12
:1005C900C933C910D7059BE99A4007EC9BFCE99A06
:1005D900F90FD8E0E4C9FAE4CCFB2275F010EF2F4B
:1005E900FFEE33FEED33FDCC33CCC833C810D7074B
:1005F9009BEC9AE899400AED9BFDEC9AFCE899F886
:0E0609000FD5F0DAE4CDFBE4CCFAE4C8F92218
:00000001FF
